:10700000CDB7DEB72597DEBFCDBFF89411248FED45
:1070100098E09EBF8DBFCDB7DEB784B714BE83FFA7
:1070200018C04091EC085091ED086091EE08709105
:10703000EF084F3E5E4B6D4A7E4D59F41092EC08BE
:107040001092ED081092EE081092EF088091EB0874
:107050009DD28093EB088FEE9EEBADEABEED809360
:10706000EC089093ED08A093EE08B093EF0811E0C0
:10707000A0E0B1E0EEE9F5E702C005900D92A23084
:10708000B107D9F711E0A2E0B1E001C01D92A73429
:10709000B107E1F785E0809381008AB183608AB906
:1070A0008BB18C7F8BB982E08093C00088E18093A4
:1070B000C10096E09093C20090E19093C400809349
:1070C00060008FE080936000559A34D184B188626B
:1070D00084B92498229A1CBC80E58CBD11E01DBDAA
:1070E0008DB58EB510924601209A229A80E991E0E2
:1070F000EDD02898F7D080E197E2E8D06FE784E000
:107100000CD1F2D084E0D8D080E0D6D0082FEAD0DD
:107110000F3709F04AC06EE086E0FFD063E08CE1F3
:10712000FCD064E08DE1F9D060E787E0F6D062E65C
:1071300085E0F3D063E081E0F0D01093460182E077
:1071400089838A838B838C838D83BE016F5F7F4F9E
:107150008BE0CCD081E089838A838B838C838D8381
:10716000BE016F5F7F4F80E1C1D0BE016F5F7F4F77
:107170008AE0BCD0F8D0DED010E000E098E1C92E63
:1071800028E0B22EAA24A39435E0932E41E1842E68
:1071900053E0D52E7DD18134A9F47AD1F82EE3D1F4
:1071A000E2E8FE1207C080E009C08091460181112B
:1071B000C6CFFFCFF1E885E0FF1283E0E5D080E1A4
:1071C000E3D0E8CF823419F484E1D3D1F8CF853409
:1071D00011F485E0FACF853549F45AD1082F10E033
:1071E00057D1182B000F111FBED1E9CF863519F4E6
:1071F00084E0BFD1D8CF843609F03EC049D148D110
:10720000782E46D1011580E7180718F4F801D7BE8B
:10721000E89520E831E0F0E87F0E790139D1F701F7
:1072200081939F017E12F9CF0115F0E71F0718F037
:10723000F801D7BEE89597D107B600FCFDCFF8015D
:10724000A0E8B1E08C919D012E5F3F4F11969C917B
:1072500011970C01A7BEE89511243296AE3FB140BC
:1072600049F4F80197BEE89507B600FCFDCF87BE4C
:10727000E895A5CFD901E6CF843769F409D108D1C3
:10728000F82E06D170D1F80185918F017DD0FA9446
:10729000F110F9CF94CF853739F465D18EE174D0F0
:1072A00085E972D08FE08ACF813509F09DCFC092F9
:1072B0006000B092600098CF8EBD8FEF81500DB40A
:1072C00007FC02C08111FACF8EB50895019708F42A
:1072D0000895000000000000000000000000000011
:1072E000A895F4CF2A9A08952A9808951F93CF93CA
:1072F000DF93182FEB01F8DF812F8062DDDF8881BB
:10730000DBDF8981D9DF8A81D7DF8B81D5DF8C8173
:10731000D3DFDF91CF911F91E5CFCF93DF93D82FAC
:10732000C62FE2DF8D2F8062C7DF8C2FC5DFDF9194
:10733000CF91D8CF80E39CEF909385008093840019
:1073400081E086BBB09BFECF4D9AA89580E39CEF71
:10735000909385008093840081E086BBB09BFECF34
:107360004D9AA89508958091450181110CC06FE751
:10737000D4DF62E082E0D1DF84E190E0A7DF289AE9
:1073800081E0809345010895DF92EF92FF920F9381
:107390001F93CF93DF93E091440191E09E0F909370
:1073A0004401F0E0EC5DFE4F8083803119F09032B3
:1073B00009F05AC010E8DD24D394115009F44CC0F0
:1073C00080E49FE183DF009144018091450188239F
:1073D00031F080E991E07ADF2898D09245016EE79C
:1073E00080E09BDF61E082E098DF7EDF81EE64DF9A
:1073F00079DF7ADF80EA60DFC4E2D1E0015008F093
:107400003BC070DF84E190E061DF289A6DDF8FEF91
:1074100053DFC82F67DF80E1E82E87E2F82EDC2FEC
:10742000D072C5FF02C0C0FF06C0C4FD04C081E029
:10743000E81AF10821F580E991E048DF289860E337
:1074400087E06BDF80914501882319F01092450198
:107450008ADFDD2309F4B1CF81E08093440180917C
:1074600024018F5F80932401DF91CF911F910F91B1
:10747000FF90EF90DF90089589911EDFBFCF80E2EB
:107480009EE424DF31DF8FEF17DFC82F2BDFC7CF5C
:107490000F931F93CF93DF9301E08091230181111C
:1074A0003AC022DF87E108DF80E006DFC82F1ADF5D
:1074B000C0FDF3CF8091230181112DC0A89560E418
:1074C00087E02BDF11DF80E6F7DE80E0F5DE182FA6
:1074D00009DF1093230108DF81E6EEDEC3E0D1E08F
:1074E000115080F4FFDE0093020180912301882374
:1074F000A1F29091030120910001921307C0109214
:107500002301CBCF80E0D8DE8993EACF90930001AE
:10751000815080932301E091020181E08E0F8093DE
:107520000201F0E0ED5FFE4F8091230181508093D6
:1075300023018081DF91CF911F910F910895809158
:107540004501882321F080E991E0C0DE28986CE7AE
:1075500080E0E3DE1092450188E18093600088E0DE
:1075600080936000FFCF94DF803209F0E8DF84E190
:107570000BCFCF93C82F8CDFC150E9F7CF91F3CF5A
:10758000E0E6F0E098E1908380830895E0E6F0E0A3
:0E75900098E190831082282EEE27FF270994A1
:02759E00FF00EC
:027FFE0000057C
:040000030000700089
:00000001FF
