:10790000CDB7DEB72597DEBFCDBFF89411248FED3C
:1079100098E09EBF8DBFCDB7DEB784B714BE83FF9E
:1079200018C04091EC085091ED086091EE087091FC
:10793000EF084F3E5E4B6D4A7E4D59F41092EC08B5
:107940001092ED081092EE081092EF088091EB086B
:10795000C0D28093EB088FEE9EEBADEABEED809334
:10796000EC089093ED08A093EE08B093EF0811E0B7
:10797000A0E0B1E0E6EEFEE702C005900D92A23075
:10798000B107D9F711E0A2E0B1E001C01D92A8341F
:10799000B107E1F785E0809381008AB183608AB9FD
:1079A0008BB18C7F8BB982E08093C00088E180939B
:1079B000C10096E09093C20090E19093C400809340
:1079C000600088E280936000559A8AB18AB934D108
:1079D00084B1886284B92498229A1CBC80E58CBD4D
:1079E00011E01DBD8DB58EB510924601209A229AE8
:1079F00080E991E0EDD02898F7D080E197E2E8D0D7
:107A00006FE784E00CD1F2D084E0D8D080E0D6D00B
:107A1000082FEAD00F3709F04AC06EE086E0FFD0A9
:107A200063E08CE1FCD064E08DE1F9D060E787E0B1
:107A3000F6D062E685E0F3D063E081E0F0D0109309
:107A4000460182E089838A838B838C838D83BE0188
:107A50006F5F7F4F8BE0CCD081E089838A838B83FB
:107A60008C838D83BE016F5F7F4F80E1C1D0BE01EB
:107A70006F5F7F4F8AE0BCD0F8D0DED010E000E02E
:107A800098E1C92E28E0B22EAA24A39435E0932EC3
:107A900041E1842E53E0D52E89D18134A9F486D1D9
:107AA000F82E04D2E2E8FE1207C080E009C08091FF
:107AB00046018111C6CFFFCFF1E885E0FF1283E0D8
:107AC000E5D080E1E3D0E8CF823419F484E1F4D149
:107AD000F8CF853411F485E0FACF853549F466D1C5
:107AE000082F10E063D1182B000F111FDFD1E9CF51
:107AF000863519F484E0E0D1D8CF843609F03EC051
:107B000055D154D1782E52D1011580E7180718F4B9
:107B1000F801D7BEE89520E831E0F0E87F0E790162
:107B200045D1F70181939F017E12F9CF0115F0E74E
:107B30001F0718F0F801D7BEE895B8D107B600FCCA
:107B4000FDCFF801A0E8B1E08C919D012E5F3F4F81
:107B500011969C9111970C01A7BEE89511243296BD
:107B6000AE3FB14049F4F80197BEE89507B600FC76
:107B7000FDCF87BEE895A5CFD901E6CF843769F45C
:107B800015D114D1F82E12D191D1F80185918F0120
:107B90007DD0FA94F110F9CF94CF853739F486D19E
:107BA0008EE174D085E972D08FE08ACF813509F0FB
:107BB0009DCFC0926000B092600098CF8EBD8FEFD5
:107BC00081500DB407FC02C08111FACF8EB5089523
:107BD000019708F408950000000000000000000074
:107BE00000000000A895F4CF2A9A08952A980895D5
:107BF0001F93CF93DF93182FEB01F8DF812F806263
:107C0000DDDF8881DBDF8981D9DF8A81D7DF8B8166
:107C1000D5DF8C81D3DFDF91CF911F91E5CFCF935B
:107C2000DF93D82FC62FE2DF8D2F8062C7DF8C2F26
:107C3000C5DFDF91CF91D8CF80E39CEF9093850093
:107C40008093840081E086BBB09BFECF4D9AA895BF
:107C500080E39CEF909385008093840081E086BB55
:107C6000B09BFECF4D9AA895089580914501811152
:107C70000CC06FE7D4DF62E082E0D1DF84E190E006
:107C8000A7DF289A81E0809345010895DF92EF9263
:107C9000FF920F931F93CF93DF9390914701992306
:107CA00009F47DC0E091440191E09E0F909344015E
:107CB000F0E0EC5DFE4F8083803119F0903209F0E6
:107CC0005AC010E8DD24D394115009F44CC080E46C
:107CD0009FE17EDF0091440180914501882331F0CE
:107CE00080E991E075DF2898D09245016EE780E049
:107CF00096DF61E082E093DF79DF81EE5FDF74DFA2
:107D000075DF80EA5BDFC4E2D1E0015008F03BC0E0
:107D10006BDF84E190E05CDF289A68DF8FEF4EDF55
:107D2000C82F62DF80E1E82E87E2F82EDC2FD072C8
:107D3000C5FF02C0C0FF06C0C4FD04C081E0E81A50
:107D4000F10821F580E991E043DF289860E387E0BE
:107D500066DF80914501882319F01092450185DF87
:107D6000DD2309F4B1CF81E08093440180912401A7
:107D70008F5F80932401DF91CF911F910F91FF902E
:107D8000EF90DF900895899119DFBFCF80E29EE4E4
:107D90001FDF2CDF8FEF12DFC82F26DFC7CF9091B8
:107DA000C00095FFFCCF8093C600E5CF0F931F93D3
:107DB000CF93DF9301E0809146019091C00097FF3F
:107DC0000CC08091C00084FD01C0A8958091C600C0
:107DD000DF91CF911F910F910895882371F38091C6
:107DE00023018823A9F0A895809123018823D1F04D
:107DF000E091020181E08E0F80930201F0E0ED5FDF
:107E0000FE4F808190912301915090932301E0CF08
:107E1000EDDE87E1D3DE80E0D1DEC82FE5DEC0FFF6
:107E2000E2CFC9CF60E487E0FADEE0DE80E6C6DEBE
:107E300080E0C4DE182FD8DE10932301D7DE81E660
:107E4000BDDEC3E0D1E0115098F4CEDE0093020114
:107E50000093470180912301882309F4ACCF9091CE
:107E6000030120910001921307C010922301A3CFB8
:107E700080E0A4DE8993E7CF909300018150809346
:107E80002301B6CF80914501882321F080E991E05C
:107E90009FDE28986CE780E0C2DE1092450188E101
:107EA0008093600088E080936000FFCF7FDF8032A6
:107EB00009F0E8DF84E1EACECF93C82F77DFC15025
:107EC000E9F7CF91F3CFE0E6F0E098E1908380838B
:107ED0000895E0E6F0E098E1908398E29083282E00
:067EE000EE27FF270994C4
:027EE600FF009B
:027FFE0000057C
:040000030000790080
:00000001FF
