:10700000CDB7DEB72597DEBFCDBFF89411248FED45
:1070100098E09EBF8DBFCDB7DEB784B714BE83FFA7
:1070200018C04091EC085091ED086091EE08709105
:10703000EF084F3E5E4B6D4A7E4D59F41092EC08BE
:107040001092ED081092EE081092EF088091EB0874
:10705000B5D28093EB088FEE9EEBADEABEED809348
:10706000EC089093ED08A093EE08B093EF0811E0C0
:10707000A0E0B1E0EEECF5E702C005900D92A23081
:10708000B107D9F711E0A2E0B1E001C01D92A73429
:10709000B107E1F785E0809381008AB183608AB906
:1070A0008BB18C7F8BB982E08093C00088E18093A4
:1070B000C10096E09093C20090E19093C400809349
:1070C00060008FE080936000559A4CD184B1886253
:1070D00084B92498229A1CBC80E58CBD11E01DBDAA
:1070E0008DB58EB510924601209A229A80E991E0E2
:1070F00005D128980FD180E197E200D16FE784E0B5
:1071000024D10AD184E0F0D080E0EED0082F02D163
:107110000F3709F05AC06EE086E017D163E08CE1CA
:1071200014D164E08DE111D160E787E00ED162E611
:1071300085E00BD163E081E008D11093460182E045
:1071400089838A838B838C838D83BE016F5F7F4F9E
:107150008BE0E4D081E089838A838B838C838D8369
:10716000BE016F5F7F4F80E1D9D0BE016F5F7F4F5F
:107170008AE0D4D010D1F6D010E000E09FEE892E46
:107180009EEB992E9DEAA92E9EEDB92E28E1C22EE6
:1071900038E0732E6624639445E0542E51E1452E69
:1071A00063E0D62E8DD11092EC081092ED0810926B
:1071B000EE081092EF088134A9F482D1F82EEBD1B9
:1071C00082E8F81207C080E009C080914601811171
:1071D000B6CFFFCF91E885E0F91283E0EDD080E1F2
:1071E000EBD0E0CF823419F484E1DBD1F8CF8534E1
:1071F00011F485E0FACF853549F462D1082F10E00B
:107200005FD1182B000F111FC6D1E9CF863519F4B5
:1072100084E0C7D1D8CF843609F03EC051D150D1D7
:10722000382E4ED10115E0E71E0718F4F801D7BE3D
:10723000E89580E891E0F0E83F0E7C0141D1F7014C
:107240008193CF013E12F9CF0115F0E71F0718F027
:10725000F801D7BEE8959FD107B600FCFDCFF80135
:10726000A0E8B1E08C919D012E5F3F4F11969C915B
:1072700011970C0167BEE89511243296AE3FB140DC
:1072800049F4F80157BEE89507B600FCFDCF47BEAC
:10729000E895A5CFD901E6CF843769F411D110D193
:1072A000F82E0ED178D1F80185918F0185D0FA940E
:1072B000F110F9CF94CF853739F46DD18EE17CD0C0
:1072C00085E97AD08FE08ACF813509F09DCF809211
:1072D000EC089092ED08A092EE08B092EF08C092F0
:1072E00060007092600090CF8EBD8FEF81500DB422
:1072F00007FC02C08111FACF8EB50895019708F4FA
:1073000008950000000000000000000000000000E0
:10731000A895F4CF2A9A08952A9808951F93CF9399
:10732000DF93182FEB01F8DF812F8062DDDF88818A
:10733000DBDF8981D9DF8A81D7DF8B81D5DF8C8143
:10734000D3DFDF91CF911F91E5CFCF93DF93D82F7C
:10735000C62FE2DF8D2F8062C7DF8C2FC5DFDF9164
:10736000CF91D8CF80E39CEF9093850080938400E9
:1073700081E086BBB09BFECF4D9AA89580E39CEF41
:10738000909385008093840081E086BBB09BFECF04
:107390004D9AA89508958091450181110CC06FE721
:1073A000D4DF62E082E0D1DF84E190E0A7DF289AB9
:1073B00081E0809345010895DF92EF92FF920F9351
:1073C0001F93CF93DF93E091440191E09E0F909340
:1073D0004401F0E0EC5DFE4F8083803119F0903283
:1073E00009F05AC010E8DD24D394115009F44CC0C0
:1073F00080E49FE183DF009144018091450188236F
:1074000031F080E991E07ADF2898D09245016EE76B
:1074100080E09BDF61E082E098DF7EDF81EE64DF69
:1074200079DF7ADF80EA60DFC4E2D1E0015008F062
:107430003BC070DF84E190E061DF289A6DDF8FEF61
:1074400053DFC82F67DF80E1E82E87E2F82EDC2FBC
:10745000D072C5FF02C0C0FF06C0C4FD04C081E0F9
:10746000E81AF10821F580E991E048DF289860E307
:1074700087E06BDF80914501882319F01092450168
:107480008ADFDD2309F4B1CF81E08093440180914C
:1074900024018F5F80932401DF91CF911F910F9181
:1074A000FF90EF90DF90089589911EDFBFCF80E2BB
:1074B0009EE424DF31DF8FEF17DFC82F2BDFC7CF2C
:1074C0000F931F93CF93DF9301E0809123018111EC
:1074D0003AC022DF87E108DF80E006DFC82F1ADF2D
:1074E000C0FDF3CF8091230181112DC0A89560E4E8
:1074F00087E02BDF11DF80E6F7DE80E0F5DE182F76
:1075000009DF1093230108DF81E6EEDEC3E0D1E05E
:10751000115080F4FFDE0093020180912301882343
:10752000A1F29091030120910001921307C01092E3
:107530002301CBCF80E0D8DE8993EACF909300017E
:10754000815080932301E091020181E08E0F8093AE
:107550000201F0E0ED5FFE4F8091230181508093A6
:1075600023018081DF91CF911F910F910895809128
:107570004501882321F080E991E0C0DE28986CE77E
:1075800080E0E3DE1092450188E18093600088E0AE
:1075900080936000FFCF94DF803209F0E8DF84E160
:1075A0000BCFCF93C82F8CDFC150E9F7CF91F3CF2A
:1075B000E0E6F0E098E1908380830895E0E6F0E073
:0E75C00098E190831082282EEE27FF27099471
:0275CE00FF00BC
:027FFE0000057C
:040000030000700089
:00000001FF
