:1079000000D00F92CDB7DEB7F89411248FED98E038
:107910009EBF8DBFCDB7DEB784B714BE83FF18C03E
:107920004091EC085091ED086091EE087091EF08DD
:107930004F3E5E4B6D4A7E4D59F41092EC0810920A
:10794000ED081092EE081092EF088091EB089AD2A1
:107950008093EB088FEE9EEBADEABEED8093EC08D2
:107960009093ED08A093EE08B093EF0811E0A0E02B
:10797000B1E0E8E9FEE702C005900D92A030B10742
:10798000D9F711E0A0E0B1E001C01D92A634B10723
:10799000E1F785E0809381008AB183608AB98BB179
:1079A0008C7F8BB902E00093C00088E18093C10016
:1079B00086E08093C20088E08093C40084B188622E
:1079C00084B92498229A1CBC80E58CBD11E01DBDB1
:1079D0008DB58EB5209A229A88EC90E0EFD0289849
:1079E000F9D088E893E1EAD06FE784E00AD1F4D0D7
:1079F00084E0DAD080E0D8D0F82EECD0EFE7FE12A9
:107A00002DC06EE086E0FDD063E08CE1FAD064E04A
:107A10008DE1F7D060E787E0F4D062E685E0F1D051
:107A200061E083E0EED063E081E0EBD010934401AD
:107A300009830A830B83BE016F5F7F4F8BE0CED03B
:107A400019831A831B83BE016F5F7F4F80E1C6D00D
:107A5000BE016F5F7F4F8AE0C1D0EFD088E1809395
:107A600060008EE080936000219A86E0D7D010E01D
:107A700000E098E1C92E28E0B22EAA24A39435E0B4
:107A8000932E41E1842E53E0D52E78D1813491F4A8
:107A900075D1F82EE4D1F2E8FF1202C080E004C0F4
:107AA00081E8F81205C085E0D9D080E1D7D0EDCFCC
:107AB00083E0FACF823419F484E1D7D1F6CF85344C
:107AC00011F485E0FACF853549F458D1082F10E03C
:107AD00055D1182B000F111FC2D1E7CF863519F4ED
:107AE00084E0C3D1DBCF843609F03EC047D146D114
:107AF000782E44D1011590E7190718F4F801D7BE84
:107B0000E89520E831E0F0E87F0E790137D1F70100
:107B100081939F017E12F9CF0115F0E71F0718F03E
:107B2000F801D7BEE8959BD107B600FCFDCFF80160
:107B3000A0E8B1E08C919D012E5F3F4F11969C9182
:107B400011970C01A7BEE89511243296AE3FB140C3
:107B500049F4F80197BEE89507B600FCFDCF87BE53
:107B6000E895A3CFD901E6CF843769F407D106D1D0
:107B7000F82E04D174D1F80185918F016FD0FA9459
:107B8000F110F9CF92CF853739F469D18EE166D003
:107B900085E964D08FE088CF813509F09DCFC09210
:107BA0006000B092600098CF8EBD8FEF81500DB411
:107BB00007FC02C08111FACF8EB50895019708F431
:107BC0000895000000000000000000000000000018
:107BD000A895F4CF2A9A08952A9808951F93CF93D1
:107BE000DF93182FEB01F8DF812F8062DDDF8881C2
:107BF000DBDF8981D9DF8A81D7DFDF91CF911F91C8
:107C0000E9CFCF93DF93D82FC62FE6DF8D2F806289
:107C1000CBDF8C2FC9DFDF91CF91DCCF28E13EEFA6
:107C200091E0309385002093840096BBB09BFECFFB
:107C3000199AA8958150A9F708958091430181115F
:107C40000CC06FE7DEDF62E082E0DBDF8AE090E01D
:107C5000B5DF289A81E0809343010895EF92FF9267
:107C60000F931F93CF93DF9390914501992309F4CC
:107C70007EC0E091420191E09E0F90934201F0E0BE
:107C8000EE5DFE4F8083803119F0903209F058C0CC
:107C9000892F880FC3DF80EA9FE090DF15E0115045
:107CA00009F44CC0A89581E0B9DF009142018091B0
:107CB0004301882339F088EC90E080DF289881E048
:107CC000809343016EE780E09CDF61E082E099DF12
:107CD00083DF81EE69DF7EDF7FDF80EA65DFC2E27E
:107CE000D1E0015008F033C075DF8AE090E066DF34
:107CF000289A72DF8FEF58DFC82F6CDF88EC90E096
:107D00005DDF289880E1E82E87E2F82EDC2FD07224
:107D1000C5FF02C0C0FF06C0C4FD04C081E0E81A70
:107D2000F108C1F460E387E06CDF809143018823B0
:107D300019F01092430181DFDD23A9F01092420176
:107D4000DF91CF911F910F91FF90EF90089589914E
:107D50002BDFC7CF8AE090E031DF3EDF8FEF24DFFB
:107D6000C82F38DFD3CF88EE93E028DF98CF9091EB
:107D7000C00095FFFCCF8093C600E2CF0F931F9306
:107D8000CF93DF9301E0809144019091C00097FF71
:107D90000CC08091C00084FD01C0A8958091C600F0
:107DA000DF91CF911F910F910895882371F38091F6
:107DB00021018823A9F0A895809121018823D1F081
:107DC000E091000181E08E0F80930001F0E0EF5F11
:107DD000FE4F808190912101915090932101E0CF3D
:107DE000FBDE87E1E1DE80E0DFDEC82FF3DEC0FFEF
:107DF000E2CFC9CF60E487E004DFEEDE80E6D4DEC8
:107E000080E0D2DE182FE6DE10932101E5DE81E668
:107E1000CBDEC1E0D1E0115050F4DCDE1092000165
:107E200000934501809121018111CACFACCF80E040
:107E3000BBDE8993F0CF80914301882321F088EC49
:107E400090E0BCDE28986CE780E0DBDE1092430116
:107E500088E18093600088E080936000FFCF8EDF30
:107E6000803209F0E8DF84E1F9CECF93C82F86DFB6
:107E7000C150E9F7CF91F3CFE0E6F0E098E19083CD
:107E800080830895E0E6F0E098E1908398E29083A3
:087E9000282EEE27FF270994BC
:027FFE0000057C
:040000030000790080
:00000001FF
