:10700000CDB7DEB72597DEBFCDBFF89411248FED45
:1070100098E09EBF8DBFCDB7DEB784B714BE83FFA7
:1070200018C04091EC085091ED086091EE08709105
:10703000EF084F3E5E4B6D4A7E4D59F41092EC08BE
:107040001092ED081092EE081092EF088091EB0874
:10705000B7D28093EB088FEE9EEBADEABEED809346
:10706000EC089093ED08A093EE08B093EF0811E0C0
:10707000A0E0B1E0E2EDF5E702C005900D92A2308C
:10708000B107D9F711E0A2E0B1E001C01D92A6342A
:10709000B107E1F785E0809381008AB183608AB906
:1070A0008BB18C7F8BB982E08093C00088E18093A4
:1070B000C10096E09093C20090E19093C400809349
:1070C00060008FE080936000559A4CD184B1886253
:1070D00084B92498229A1CBC80E58CBD11E01DBDAA
:1070E0008DB58EB510924501209A229A80E991E0E3
:1070F00005D128980FD180E197E200D16FE784E0B5
:1071000024D10AD184E0F0D080E0EED0082F02D163
:107110000F3709F05AC06EE086E017D163E08CE1CA
:1071200014D164E08DE111D160E787E00ED162E611
:1071300085E00BD163E081E008D11093450182E046
:1071400089838A838B838C838D83BE016F5F7F4F9E
:107150008BE0E4D081E089838A838B838C838D8369
:10716000BE016F5F7F4F80E1D9D0BE016F5F7F4F5F
:107170008AE0D4D010D1F6D010E000E09FEE892E46
:107180009EEB992E9DEAA92E9EEDB92E28E1C22EE6
:1071900038E0732E6624639445E0542E51E1452E69
:1071A00063E0D62E8FD11092EC081092ED08109269
:1071B000EE081092EF088134A9F484D1F82EEDD1B5
:1071C00082E8F81207C080E009C080914501811172
:1071D000B6CFFFCF91E885E0F91283E0EDD080E1F2
:1071E000EBD0E0CF823419F484E1DDD1F8CF8534DF
:1071F00011F485E0FACF853549F464D1082F10E009
:1072000061D1182B000F111FC8D1E9CF863519F4B1
:1072100084E0C9D1D8CF843609F03EC053D152D1D1
:10722000382E50D10115E0E71E0718F4F801D7BE3B
:10723000E89580E891E0F0E83F0E7C0143D1F7014A
:107240008193CF013E12F9CF0115F0E71F0718F027
:10725000F801D7BEE895A1D107B600FCFDCFF80133
:10726000A0E8B1E08C919D012E5F3F4F11969C915B
:1072700011970C0167BEE89511243296AE3FB140DC
:1072800049F4F80157BEE89507B600FCFDCF47BEAC
:10729000E895A5CFD901E6CF843769F413D112D18F
:1072A000F82E10D17AD1F80185918F0185D0FA940A
:1072B000F110F9CF94CF853739F46FD18EE17CD0BE
:1072C00085E97AD08FE08ACF813509F09DCF809211
:1072D000EC089092ED08A092EE08B092EF08C092F0
:1072E00060007092600090CF8EBD8FEF81500DB422
:1072F00007FC02C08111FACF8EB50895019708F4FA
:1073000008950000000000000000000000000000E0
:10731000A895F4CF2A9A08952A9808951F93CF9399
:10732000DF93182FEB01F8DF812F8062DDDF88818A
:10733000DBDF8981D9DF8A81D7DF8B81D5DF8C8143
:10734000D3DFDF91CF911F91E5CFCF93DF93D82F7C
:10735000C62FE2DF8D2F8062C7DF8C2FC5DFDF9164
:10736000CF91D8CF80E39CEF9093850080938400E9
:1073700081E086BBB09BFECF4D9AA89580E39CEF41
:10738000909385008093840081E086BBB09BFECF04
:107390004D9AA89508958091440181110CC06FE722
:1073A000D4DF62E082E0D1DF84E190E0A7DF289AB9
:1073B00081E0809344010895DF92EF92FF920F9352
:1073C0001F93CF93DF93E091010191E09E0F909383
:1073D0000101F0E0EC5DFE4F8083803119F09032C6
:1073E00009F05CC01092240110E8DD24D394115000
:1073F00009F44CC080E49FE181DF0091010180919C
:107400004401882331F080E991E078DF2898D09218
:1074100044016EE780E099DF61E082E096DF7CDF87
:1074200081EE62DF77DF78DF80EA5EDFC4E2D1E001
:10743000015008F03BC06EDF84E190E05FDF289AE6
:107440006BDF8FEF51DFC82F65DF80E1E82E87E229
:10745000F82EDC2FD072C5FF02C0C0FF06C0C4FDED
:1074600004C081E0E81AF10821F580E991E046DFE7
:10747000289860E387E069DF80914401882319F050
:107480001092440188DFDD2309F4B1CF81E08093BD
:107490000101809124018F5F80932401DF91CF91BE
:1074A0001F910F91FF90EF90DF90089589911CDF5D
:1074B000BFCF80E29EE422DF2FDF8FEF15DFC82FE2
:1074C00029DFC7CF0F931F93CF93DF9301E0809104
:1074D000230181113AC020DF87E106DF80E004DF6D
:1074E000C82F18DFC0FDF3CF8091230181112DC07B
:1074F000A89560E487E029DF0FDF80E6F5DE80E015
:10750000F3DE182F07DF1093230106DF81E6ECDEA0
:10751000C3E0D1E0115080F4FDDE009302018091C0
:1075200023018823A1F2909103012091000192137D
:1075300007C010922301CBCF80E0D6DE8993EACF3B
:1075400090930001815080932301E091020181E03A
:107550008E0F80930201F0E0ED5FFE4F80912301DA
:107560008150809323018081DF91CF911F910F91F2
:10757000089580914401882321F080E991E0BEDEE6
:1075800028986CE780E0E1DE1092440188E1809366
:10759000600088E080936000FFCF94DF803209F0C4
:1075A000E8DF84E109CFCF93C82F8CDFC150E9F722
:1075B000CF91F3CFE0E6F0E098E1908380830895E7
:1075C000E0E6F0E098E190831082282EEE27FF2776
:0275D00009941C
:0275D200FF01B7
:027FFE0000057C
:040000030000700089
:00000001FF
